:100000000C9434000C9451000C9451000C9439055C
:100010000C9451000C9473050C9451000C945100F5
:100020000C9451000C9451000C9451000C9451000C
:100030000C9451000C9451000C9483020C945100C8
:100040000C9451000C9451000C94AB000C94510092
:100050000C9451000C9451000C9451000C945100DC
:100060000C9451000C94510011241FBECFEFD8E026
:10007000DEBFCDBF11E0A0E0B1E0ECE4F3E102C0EF
:1000800005900D92A835B107D9F721E0A8E5B1E0B8
:1000900001C01D92A139B207E1F70E94D0020C9471
:1000A000A4090C940000ECE7F0E080818064808378
:1000B00080818F77808380818F7D8083EAE7F0E085
:1000C0008081876080838081806880830895ECE7E9
:1000D000F0E09081907F892B8083EAE7F0E08081D7
:1000E0008064808380917A0086FDFCCF80917800C7
:1000F0009091790008958AB18E7F8AB98AB1826021
:100100008AB9E0ECF0E01082808182608083E1ECCB
:10011000F0E01082808188698083E2ECF0E0108258
:100120008081866080838FEC90E09093C5008093FF
:10013000C4000895AC0120E007C09091C00095FF75
:10014000FCCF3093C6002F5FFA01E20FF11D308122
:100150003111F3CF08951F920F920FB60F92112411
:100160008F939F93EF93FF938091C6008A3099F00D
:10017000E0917A0191E09E0F90937A01F0E0E357CD
:10018000FE4F808380917A01833028F083E0809352
:100190007A0110927A01FF91EF919F918F910F90C8
:1001A0000FBE0F901F90189590E0C0970895E4E659
:1001B000E89F9001E99F300D1124CB01880F991F12
:1001C000660F771F660F771F660F771F680F791FFF
:1001D000C901860F971F840F951F0895AF92BF9294
:1001E000CF92DF92EF92FF920F931F9381E00E94D4
:1001F0006700909382018093810182E00E946700F2
:100200009093800180937F0180E00E94670090932B
:100210007E0180937D0183E00E94670090937C01C2
:1002200080937B01609181017091820120917F0117
:1002300030918001620F731F20917D0130917E010A
:10024000620F731F680F791F772314F46D5F7F4F60
:100250007595679575956795072E000C880B990B1A
:100260000E946D081F921F921F921F920F2EA12CA9
:10027000B12CF4E3CF2EF3E4DF2EF02DE12C10ECC3
:10028000F12E0FE714E420E030E0A9010E9493066C
:100290000E943C08862F609379010E9411068FE32B
:1002A0009FE10197F1F700C000000F900F900F90B1
:1002B0000F901F910F91FF90EF90DF90CF90BF9024
:1002C000AF900895CF93DF9381E00E9467009093F1
:1002D00082018093810182E00E94670090938001F7
:1002E00080937F0180E00E94670090937E0180935D
:1002F0007D0183E00E94670090937C0180937B01E5
:10030000C0918101D091820120917F0130918001C3
:10031000BE01620F731F772314F46F5F7F4F7595D3
:100320006795FB01709366016093650140917D01C3
:1003300050917E01BC01640F751F772314F46F5F29
:100340007F4F75956795DB0170936401609363013E
:100350004C0F5D1F552314F44F5F5F4F5595479524
:100360005093620140936101820F931F99230CF413
:100370000196959587959093600180935F01EA17A8
:10038000FB0740F56091690170916A016150710944
:1003900070936A0160936901072E000C880B990B1A
:1003A0000E946D080E94F2062091690130916A0155
:1003B00080910401909105018217930724F0909396
:1003C0006A01809369018FE39CE90197F1F700C00E
:1003D00000002AC0AE17BF0738F56091690170911F
:1003E0006A016F5F7F4F70936A0160936901072E06
:1003F000000C880B990B0E946D080E94F206209158
:10040000690130916A0180910201909103012817DE
:10041000390724F090936A01809369018FE39CE986
:100420000197F1F700C0000020915F013091600159
:1004300080916101909162012817390758F5609108
:100440006B0170916C016F5F7F4F70936C016093D3
:100450006B01072E000C880B990B0E946D080E94FF
:10046000240720916B0130916C01809106019091DD
:1004700007012817390724F090936C0180936B01D2
:100480009FEF29EF80E0915020408040E1F700C0CD
:1004900000002DC08217930750F560916B01709199
:1004A0006C016150710970936C0160936B01072EB0
:1004B000000C880B990B0E946D080E942407209164
:1004C0006B0130916C0180916701909168018217F6
:1004D000930724F090936C0180936B019FEF29EFB9
:1004E00080E0915020408040E1F700C00000DF91A3
:1004F000CF91089582E084BD93E095BD99EF97BDBB
:1005000080936E0008951F920F920FB60F921124E0
:100510008F939F93AF93BF938091750190917601D4
:10052000A0917701B09178010196A11DB11D809332
:10053000750190937601A0937701B0937801BF91F4
:10054000AF919F918F910F900FBE0F901F901895B4
:1005500084B18F7E84B985B1806185B984B18E7F85
:1005600084B985B1816085B9E8E6F0E08081816079
:100570008083ABE6B0E08C9180618C938C9181603C
:100580008C938AB18F778AB98BB180688BB980815F
:1005900084608083EDE6F0E0808180688083089548
:1005A000F8940E947B000E9453000E9477060E94EC
:1005B000F6050E947A020E94A8028AB180678AB971
:1005C0008AB184608AB978948AE590E090936C014E
:1005D00080936B01609104017091050170936A0131
:1005E00060936901072E000C880B990B0E946D081F
:1005F0000E94F20660916B0170916C01072E000C55
:10060000880B990B0E946D080E94240780E491E0FA
:100610000E949A0088EC0E9447068BB18B7F8BB9B1
:100620002FEF83ED90E3215080409040E1F700C030
:10063000000080E00E94470680910801813099F017
:1006400020F0823009F4F6C0F7CF8BB180618BB90E
:100650008BB18F7D8BB98BB18F7B8BB90E94EE00F4
:100660000E946201E9CF8091740181110EC08091D6
:10067000730181110AC08BB180618BB98BB1806429
:100680008BB91092720110927101809174018111E5
:100690006CC080917301813009F067C08BB18062BA
:1006A0008BB98BB18F7E8BB98BB18F7B8BB98091DE
:1006B000750190917601A0917701B0917801883E03
:1006C0009340A105B10508F450C010927501109235
:1006D00076011092770110927801809171019091CA
:1006E00072018A309105CCF50E948E0980935E01DB
:1006F0000E94110680917101909172010A96909367
:10070000700180936F010E948E0980935D01682FB4
:1007100070E080E090E00E946B080E94F2068091F9
:10072000710190917201449690936E0180936D01D6
:100730000E948E0980935C01682F70E080E090E059
:100740000E946B080E9424078091710190917201B0
:100750000196909372018093710180917101909143
:1007600072010A9714F01092730180917401813024
:1007700009F062CF8091730181115ECF0E94EE007B
:100780000E9462018BB18F7E8BB98BB18F7B8BB94D
:100790008091750190917601A0917701B0917801D7
:1007A000883E9340A105B10508F446CF9BB180E295
:1007B00089278BB9109275011092760110927701FA
:1007C0001092780180917101909172018A309105A7
:1007D0003CF5609179010E94960980917101909198
:1007E00072010A969093700180936F016091690184
:1007F0000E949609809171019091720144969093A4
:100800006E0180936D0160916B010E949609809149
:100810007101909172010196909372018093710120
:1008200080917101909172010A970CF405CF10929A
:10083000740102CF8BB180648BB98BB18F7D8BB982
:100840008BB18F7E8BB9CDE8D1E088810E94D40036
:100850008C0189810E94D4007C018A810E94D4008D
:10086000AC01B701C8010E94D700EC019C012456DD
:1008700031092436310528F5BC01990F880B990BF5
:100880000E946D0823E42F9324E32F931F921F925D
:10089000A12CB12C6501E12CF12C07E413E420E03C
:1008A00030E048EC52E40E9493060E943508862FFF
:1008B000C82FD72F0E9411060F900F900F900F9006
:1008C0008FC09C01285C31092436310578F5BC01C4
:1008D000990F880B990B0E946D0822E42F9324EB4B
:1008E0002F931F921F920F2EA12CB12CF0E2CF2E2E
:1008F000F1E4DF2EF02DE12C10E8F12E05E913E4F0
:1009000020E030E048E453E40E9493060E9435085A
:10091000EB01072E000C880B990B0E946D080E94BA
:10092000F2060F900F900F900F905AC09C012C521E
:1009300031402436310550F5BC01990F880B990BD5
:100940000E946D0823E42F9324E32F931F921F929C
:10095000A12CB12C6501E12C10E8F12E07EC13E479
:1009600020E030E046E953E40E9493060E943508F7
:10097000EB01072E000C880B990B0E946D080E945A
:1009800024070F900F900F900F902AC0805991402C
:100990008436910528F5BE010D2E000C880B990BAD
:1009A0000E946D0822E42F9328EC2F931F921F9230
:1009B000A12CB12C6501E12C10E8F12E09EF13E414
:1009C00020E030E048EC53E40E9493060E94350892
:1009D00070935B0160935A010F900F900F900F90EE
:1009E000C53F21E0D20709F51092010110920001E4
:1009F00081E090E0909359018093580180915A01D1
:100A00000E9447068BB18B7F8BB98FEF93ED20E36C
:100A1000815090402040E1F700C0000080E00E943B
:100A200047068BB18B7F8BB907CECE3FD14009F003
:100A300003CE109259011092580181E090E09093FA
:100A400001018093000180E00E9447068BB1846021
:100A50008BB99FEF23ED80E3915020408040E1F778
:100A600000C0000080E00E9447068BB18B7F8BB9ED
:100A7000E3CD1F920F920FB60F9211245F936F93E5
:100A80007F938F939F93AF93BF938FE39CE90197DD
:100A9000F1F700C000001C990AC08091080190E0A5
:100AA000019663E070E00E9466098093080118993E
:100AB0000EC080910801813051F480917401811140
:100AC00004C081E08093740102C010927401BF9150
:100AD000AF919F918F917F916F915F910F900FBE1A
:100AE0000F901F9018951F920F920FB60F9211241E
:100AF0008F939F938FE39CE90197F1F700C000006B
:100B00004F990EC080910801813051F4809173019A
:100B1000811104C081E08093730102C010927301BF
:100B20009F918F910F900FBE0F901F9018954F922D
:100B30005F926F927F92AF92BF92CF92DF92EF92CD
:100B4000FF920F931F93CF93DF93CDB7DEB7289714
:100B50000FB6F894DEBF0FBECDBF29013A01ED827A
:100B6000FE820F8318870E94560769837A838B83DE
:100B70009C83A6019501698D7A8D8B8D9C8D0E9439
:100B800056079B01AC0169817A818B819C810E940F
:100B9000F90869837A838B839C83A3019201C8013E
:100BA000B7010E9456079B01AC0169817A818B8154
:100BB0009C810E94C3079B01AC01C601B5010E9444
:100BC000570728960FB6F894DEBF0FBECDBFDF9152
:100BD000CF911F910F91FF90EF90DF90CF90BF903A
:100BE000AF907F906F905F904F9008958AB188602A
:100BF0008AB984B1886084B9E0EBF0E080818360D9
:100C00008083808180688083808180628083E1EB43
:100C1000F0E08081876080831092B3001092B4006E
:100C20000895AF92BF92CF92DF92EF92FF920F930F
:100C30001F93682F70E080E090E00E946B0822E430
:100C40002F9328E12F931F921F920F2EA12CB12CCE
:100C5000F0ECCF2EF0E4DF2EF02DE12CF12C04E3AC
:100C600013E420E030E0A9010E9497050F900F9057
:100C70000F900F900E943C086093B3001F910F915A
:100C8000FF90EF90DF90CF90BF90AF900895AF921C
:100C9000BF92CF92DF92EF92FF920F931F93682F34
:100CA00070E080E090E00E946B0823E42F932FE730
:100CB0002F931F921F92A12CB12C6501E12CF12CD6
:100CC00008EC12E4A60195010E9497050F900F9081
:100CD0000F900F900E943C086093B4001F910F91F9
:100CE000FF90EF90DF90CF90BF90AF90089584B1C8
:100CF000866084B910928500109284008FE39CE98D
:100D00009093870080938600E0E8F0E080EA80839B
:100D1000808182608083E1E8F0E088E180838081E7
:100D20008260808308954F925F926F927F92AF921C
:100D3000BF92CF92DF92EF92FF920F931F93CF93C8
:100D4000DF93CDB7DEB728970FB6F894DEBF0FBE9E
:100D5000CDBF29013A01ED82FE820F8318870E94E0
:100D6000560769837A838B839C83A6019501698DDD
:100D70007A8D8B8D9C8D0E9456079B01AC016981F9
:100D80007A818B819C810E94F90869837A838B83A5
:100D90009C83A3019201C801B7010E9456079B01E1
:100DA000AC0169817A818B819C810E94C3079B0180
:100DB000AC01C601B5010E94570728960FB6F894FA
:100DC000DEBF0FBECDBFDF91CF911F910F91FF907E
:100DD000EF90DF90CF90BF90AF907F906F905F903B
:100DE0004F900895AF92BF92CF92DF92EF92FF9211
:100DF0000F931F9325E42F9326E92F931F921F92A1
:100E00000F2EA12CB12CFAE7CF2EF4E4DF2EF02D1B
:100E1000E12CF12C04E313E420E030E0A9010E946E
:100E200093060F900F900F900F900E943C087093C4
:100E30008900609388001F910F91FF90EF90DF90E1
:100E4000CF90BF90AF900895AF92BF92CF92DF92B4
:100E5000EF92FF920F931F9325E42F9326E92F9390
:100E60001F921F920F2EA12CB12CFAE7CF2EF4E483
:100E7000DF2EF02DE12CF12C04E313E420E030E030
:100E8000A9010E9493060F900F900F900F900E945F
:100E90003C0870938B0060938A001F910F91FF9024
:100EA000EF90DF90CF90BF90AF9008955058BB2740
:100EB000AA270E946E070C94BF080E94B10838F060
:100EC0000E94B80820F039F49F3F19F426F40C94DE
:100ED000AE080EF4E095E7FB0C94A808E92F0E94F9
:100EE000D00858F3BA17620773078407950720F0F4
:100EF00079F4A6F50C94F2080EF4E0950B2EBA2FB7
:100F0000A02D0B01B90190010C01CA01A00111240F
:100F1000FF27591B99F0593F50F4503E68F11A16BB
:100F2000F040A22F232F342F4427585FF3CF46954C
:100F300037952795A795F0405395C9F77EF41F166E
:100F4000BA0B620B730B840BBAF09150A1F0FF0F38
:100F5000BB1F661F771F881FC2F70EC0BA0F621F24
:100F6000731F841F48F4879577956795B795F79514
:100F70009E3F08F0B0CF9395880F08F09927EE0FA9
:100F80009795879508950E94D7070C94BF080E94F3
:100F9000B80858F00E94B10840F029F45F3F29F0EA
:100FA0000C94A80851110C94F3080C94AE080E94FC
:100FB000D00868F39923B1F3552391F3951B550B92
:100FC000BB27AA2762177307840738F09F5F5F4F1C
:100FD000220F331F441FAA1FA9F335D00E2E3AF05B
:100FE000E0E832D091505040E695001CCAF72BD073
:100FF000FE2F29D0660F771F881FBB1F26173707C4
:101000004807AB07B0E809F0BB0B802DBF01FF27F5
:1010100093585F4F3AF09E3F510578F00C94A80822
:101020000C94F3085F3FE4F3983ED4F386957795EC
:101030006795B795F7959F5FC9F7880F911D9695AE
:10104000879597F90895E1E0660F771F881FBB1F0A
:10105000621773078407BA0720F0621B730B840BB7
:10106000BA0BEE1F88F7E09508950E943C0868943B
:10107000B1110C94F30808950E94D80888F09F5786
:1010800098F0B92F9927B751B0F0E1F0660F771FAC
:10109000881F991F1AF0BA95C9F714C0B13091F0A2
:1010A0000E94F208B1E008950C94F208672F782F9F
:1010B0008827B85F39F0B93FCCF386957795679567
:1010C000B395D9F73EF490958095709561957F4FD3
:1010D0008F4F9F4F0895E89409C097FB3EF4909579
:1010E0008095709561957F4F8F4F9F4F9923A9F001
:1010F000F92F96E9BB279395F69587957795679590
:10110000B795F111F8CFFAF4BB0F11F460FF1BC0D3
:101110006F5F7F4F8F4F9F4F16C0882311F096E966
:1011200011C0772321F09EE8872F762F05C0662314
:1011300071F096E8862F70E060E02AF09A95660FCD
:10114000771F881FDAF7880F9695879597F9089586
:1011500097F99F6780E870E060E008959FEF80EC6A
:10116000089500240A94161617061806090608950D
:1011700000240A9412161306140605060895092E73
:101180000394000C11F4882352F0BB0F40F4BF2BE2
:1011900011F460FF04C06F5F7F4F8F4F9F4F089522
:1011A00057FD9058440F551F59F05F3F71F0479518
:1011B000880F97FB991F61F09F3F79F087950895FD
:1011C000121613061406551FF2CF4695F1DF08C01C
:1011D000161617061806991FF1CF86957105610539
:1011E00008940895E894BB2766277727CB0197F9E1
:1011F00008950E940C090C94BF080E94B10838F0B1
:101200000E94B80820F0952311F00C94A8080C94C3
:10121000AE0811240C94F3080E94D00870F3959F37
:10122000C1F3950F50E0551F629FF001729FBB27DD
:10123000F00DB11D639FAA27F00DB11DAA1F649F79
:101240006627B00DA11D661F829F2227B00DA11D2C
:10125000621F739FB00DA11D621F839FA00D611DB2
:10126000221F749F3327A00D611D231F849F600DD3
:10127000211D822F762F6A2F11249F5750409AF0FC
:10128000F1F088234AF0EE0FFF1FBB1F661F771F88
:10129000881F91505040A9F79E3F510580F00C9453
:1012A000A8080C94F3085F3FE4F3983ED4F38695C6
:1012B00077956795B795F795E7959F5FC1F7FE2BF3
:1012C000880F911D9695879597F9089597FB072E9E
:1012D00016F4009407D077FD09D00E947A0907FC24
:1012E00005D03EF4909581959F4F08957095619536
:1012F0007F4F0895AA1BBB1B51E107C0AA1FBB1F4C
:10130000A617B70710F0A61BB70B881F991F5A9591
:10131000A9F780959095BC01CD010895F999FECF6C
:1013200092BD81BDF89A992780B50895262FF99925
:10133000FECF1FBA92BD81BD20BD0FB6F894FA9AB8
:0C134000F99A0FBE01960895F894FFCFB3
:10134C0001005A000F00B40002256400544F5020D5
:10135C004C4546543A2000544F502052494748546B
:10136C003A2000424F54544F4D204C4546543A209D
:10137C0000424F54544F4E2052494748543A200093
:10138C000A53554E464C4F57455220534F4C4152E1
:08139C002050414E454C0A00AF
:00000001FF
